:020000040800F2
:1000000048090020C1010008F7240008B11E0008BB
:10001000F5240008D5070008052B000800000000A3
:100020000000000000000000000000002926000879
:10003000B908000800000000F92400082B26000879
:10004000DB010008DB010008DB010008DB01000820
:10005000DB010008DB010008150E0008DB010008C9
:10006000DB010008DB010008DB010008DB01000800
:10007000DB010008DB010008DB010008DB010008F0
:10008000DB010008DB010008DB010008DB010008E0
:10009000DB010008DB010008DB010008DB010008D0
:1000A000DB010008DB010008DB010008DB010008C0
:1000B000DB010008DB010008DB010008DB010008B0
:1000C000DB010008DB010008DB010008DB010008A0
:1000D000DB010008F92A0008DB010008DB01000849
:1000E0001B0E0008DB010008DB010008DB01000833
:1000F000DB010008DB010008DB010008DB01000870
:10010000DB010008DB010008DB010008DB0100085F
:10011000DB010008DB010008DB010008DB0100084F
:10012000DB010008DB010008DB010008DB0100083F
:10013000DB010008DB010008DB010008DB0100082F
:10014000DB010008DB010008DB010008DB0100081F
:10015000DB010008DB010008DB010008DB0100080F
:10016000DB010008DB010008DB010008DB010008FF
:10017000DB010008DB010008DB01000800000000D3
:10018000DB010008DB010008DB010008DB010008DF
:10019000DB010008DB010008DB010008DB010008CF
:1001A000DB010008DB010008DB010008DFF80CD0F0
:1001B00000F0ECFA00480047913700084809002099
:1001C0000648804706480047FEE7FEE7FEE7FEE7F1
:1001D000FEE7FEE7FEE7FEE7FEE7FEE7B9260008DA
:1001E000AD0100082DE9F05F0546002092469B46D0
:1001F00088460646814640241BE02846414647463D
:10020000224600F09DF853465A46C01A914110D339
:1002100011461846224600F084F82D1A67EB0108B3
:100220004F4622460120002100F07BF817EB000921
:100230004E41201EA4F10104DFDC484631462A4627
:100240004346BDE8F09F40EA01039B0703D009E065
:1002500008C9121F08C0042AFAD203E011F8013BB2
:1002600000F8013B521EF9D27047D2B201E000F80B
:10027000012B491EFBD270470022F6E710B513464A
:100280000A4604461946FFF7F0FF204610BD30B578
:1002900005462A460B4612F8010B13F8014B08B12C
:1002A000A042F8D01CB1002802D06D1CF1E728460E
:1002B00030BD421C10F8011B0029FBD1801A704789
:1002C00010B5002200E0521C835C8C5CA34201D17B
:1002D000002BF8D1D8B2E1B2401A10BD0EB540F2F1
:1002E000334102910021CDE900110A460B4600F08E
:1002F00046F803B000BD30B50B4601460020202271
:10030000012409E021FA02F59D4205D303FA02F522
:10031000491B04FA02F52844151EA2F10102F1DC82
:1003200030BD202A04DB203A00FA02F10020704799
:100330009140C2F1200320FA03F319439040704723
:10034000202A04DB203A21FA02F00021704721FA2A
:1003500002F3D040C2F12002914008431946704791
:1003600010B5141E73F1000408DA401C41F10001BD
:1003700092185B411A4301D120F0010010BD2DE914
:10038000F04D92469B4611B1B1FA81F202E0B0FA0B
:1003900080F220329046FFF7C4FF04460F4640EA41
:1003A0000A0041EA0B0153465A46084313D011464E
:1003B00053EA010019D0C8F140025046FFF7C0FFD0
:1003C00005460E46504659464246FFF7AAFF0843E7
:1003D00005D0012004E020463946BDE8F08D00201C
:1003E000054346EAE0762C4337430A986305E40A5E
:1003F000A0EB08000022FD0A44EA47540A3002D567
:1004000000200146E9E7010510196941DDE90845C9
:1004100000196941BDE8F04DA2E72DE9FE4F804685
:1004200081EA0300C00F0C46009021F0004123F048
:100430000045B8EB0200A94105D24046214690464E
:100440001C460B46024623F00040104347D0270DC0
:10045000C7F30A00C3F30A510290401A01904028E2
:100460006BDAC3F3130040F4801B0098924620B16E
:100470000023D2EB030A63EB0B0B01985946C0F142
:1004800040025046FFF74DFF06460D46504659467E
:10049000019A00F08DF910EB08006141002487EA11
:1004A000115284EAE7731A4340D0009A62B3019A6A
:1004B000012A4FEA075215DC001B61EB02014FF0E5
:1004C000004202EA0752CDE90042001C41F58011CA
:1004D00032462B46FFF753FF03B0BDE8F08F40468E
:1004E0002146F9E7001B61EB0201001C41F5801376
:1004F00000185B412018A2F5001747EB030140EA02
:10050000D570B6196D4111E06D084FEA360645EA1F
:10051000C0754FEA0752001B61EB0201001C41F558
:10052000801149084FEA30000019514132462B46EC
:1005300003B0BDE8F04FFFF713BF00980122400061
:100540000023D0EB020263EBE073009821464FEAF0
:10055000E074B8EB000061EB0401E9E783F00043CD
:100560005BE781F0004158E72DE9FE4F81EA030483
:1005700004F0004421F0004100944FF0000B23F000
:10058000004350EA01045ED052EA03045BD0C3F397
:100590000A54C1F30A552C44A4F2F3340194A0FB8D
:1005A0000254C1F3130141F48011C3F3130343F464
:1005B000801301FB024400FB034E840A970A44EABD
:1005C000815447EA8357A4FB076802958D0A05FB0F
:1005D00007854FEA932C04FB0C542705029D4FEA34
:1005E000065847EA1637B5EB08056EEB070C870E81
:1005F000920E47EA811742EA8312A7FB0201B6EB8B
:100600000B0164EB00042B0D43EA0C335E1844EB42
:100610001C50DA465146E7FB0201C5F313044FEACA
:100620000B3343EA14534FEA0432019C43EA0603B6
:10063000A4F10C040294009CCDE900B4FFF79FFEE6
:1006400003B0BDE8F08F00200146F9E72DE9F04D39
:1006500081EA030404F0004B21F0004514464FF0FA
:10066000000A23F0004150EA050220D054EA0102BA
:100670001DD0C5F30A570246C5F31303C1F3130097
:10068000C1F30A5640F4801543F48013A7EB060823
:10069000101BD64608F2FD3873EB050002D308F1B3
:1006A000010801E092185B41B8F1000F03DA002065
:1006B0000146BDE8F08D00204FF4801106468446C7
:1006C0000EE0171B73EB050705D3121B63EB050345
:1006D00006434CEA010C49084FEA300092185B418E
:1006E00050EA0107EDD152EA030012D082EA040079
:1006F00083EA0501084305D0101BAB4106D2012255
:10070000002306E000224FF0004302E06FF00102F8
:1007100053101AEB06004CEB085110EB0A0041EBAA
:100720000B01BDE8F04DFFF71BBEC1F30A52C1F348
:10073000130140F2FF3341F480119A4202DA0020A3
:100740000146704740F233439A42A2F2334202DC40
:100750005242FFF7F5BDFFF7E4BD000030B5041EBF
:1007600071F1000404DB4FF00044404264EB0101EE
:10077000141E73F1000405DB1C464FF00043524287
:1007800063EB0403994208BF904230BD064C074D0D
:1007900006E0E06840F0010394E807009847103451
:1007A000AC42F6D3FFF706FDFC3800081C39000800
:1007B000202A06DBCB17203A41FA02F043EAE07325
:1007C00006E041FA02F3D040C2F120029140084312
:1007D00019467047FEE7000070B524484FF4806367
:1007E000234C01785D004A1C9E00027008293AD211
:1007F000DFE801F0040608101D242B32002217E068
:1008000000221CE0002221E02946204600F021FDC4
:10081000002206E0002220E02946204600F019FDD3
:10082000012231462046BDE8704000F012BD012291
:100830001946204600F00DFD0022E5E70122194689
:10084000204600F006FD0022E6E701221946204678
:1008500000F0FFFC0122D7E701221946204600F0F4
:10086000F8FC0122D8E70021017070BD00000020D3
:10087000001C024000B585B00820009001200290C5
:1008800000200190022003906946024800F0F2FB2C
:1008900005B000BD0000024000B585B00820009002
:1008A00001200190022003906946024800F0E2FB1B
:1008B00005B000BD000002407047000010B500F018
:1008C0006BFA002832D01AA002F01EF922A125A04E
:1008D00000F070F9002822D025A002F015F940F2AE
:1008E0005B722DA139A000F0C1F9002819D038A001
:1008F00002F00AF942A24DA151A001F007FB002825
:1009000011D059A002F000F90122002162A001F0EB
:1009100075FC50B1BDE810406CA002F0F5B80120A4
:1009200004E0022002E0032000E0042000F07AFA54
:10093000A1BE6D61696EA1BF696E666F3A45535085
:1009400038323636B3F5CABCBBAFB3C9B9A6A3A11A
:100950000D0A0D0A000000003132333435363738C5
:100960003930000048617070794F6E6544617900DC
:10097000A1BE6D61696EA1BF696E666F3A45535045
:1009800038323636C1ACBDD3C8C8B5E3B3C9B9A691
:10099000A3A10D0A0D0A000061316C416F617A64F8
:1009A0004831772E696F742D61732D6D7174742EBB
:1009B000636E2D7368616E676861692E616C697919
:1009C000756E63732E636F6D00000000544350001A
:1009D000A1BE6D61696EA1BF696E666F3A455350E5
:1009E00038323636C1ACBDD3B0A2C0EFD4C6B7FEE4
:1009F000CEF1C6F7B3C9B9A6A3A10D0A0D0A00002E
:100A0000353141354242313033303645393736445D
:100A10003643393830463733303337463244393449
:100A2000393644323831334100000000425A4C30EC
:100A3000312661316C416F617A6448317700000082
:100A400030303030317C7365637572656D6F64650D
:100A50003D332C7369676E6D6574686F643D686DB6
:100A60006163736861317C00A1BE6D61696EA1BF75
:100A7000696E666F3A45535038323636B0A2C0EFD1
:100A8000D4C64D515454B5C7C2BDB3C9B9A6A3A16C
:100A90000D0A0D0A000000002F7379732F61316C6D
:100AA000416F617A644831772F425A4C30312F744C
:100AB00068696E672F736572766963652F70726FF0
:100AC00070657274792F736574000000A1BE6D614A
:100AD000696EA1BF696E666F3A455350383236363B
:100AE000B0A2C0EFD4C64D515454B6A9D4C4D6F761
:100AF000CCE2B3C9B9A6A3A10D0A0D0A00000000FB
:100B000070B50C4605464FF480710748FFF7B4FBFB
:100B100006490020224608702946BDE870404FF67D
:100B2000FF73034801F066B942030020150000205E
:100B3000AC01002010B504464FF480710948FFF75E
:100B40009BFB094900200870084806E002685160D4
:100B50000168641C0A685206FCD521780029F5D189
:100B600010BD00004203002015000020AC01002051
:100B700070B505244FF400750EE029460948FFF7CB
:100B80007BFB09A0FFF7D6FFC82209A1054800F0AA
:100B9000FCF908B1012070BD2046641EE4B2ECD21D
:100BA00070BD00004203002041540D0A0000000007
:100BB0004F4B00002DE9F0478846814605244FF44D
:100BC00000750CE029461A48FFF756FB19A0FFF7FD
:100BD000B1FFC8221CA1164800F0D7F910B9641E55
:100BE000E4B2EFD2ECB1012426024FF4FA573146B9
:100BF0001648FFF741FB29460D48FFF73DFB4346EA
:100C00004A4613A1114801F08FFF1048FFF792FFE9
:100C10003A460DA1064800F0B8F920B10120BDE820
:100C2000F0870020FBE72046641EE4B2DFD2F6E73F
:100C30004203002041542B43574D4F44455F4355D9
:100C4000523D310D0A0000004F4B000042020020CF
:100C500041542B43574A41505F4355523D2225731F
:100C6000222C222573220D0A000000002DE9F84FE6
:100C700016468946824600F07DF84FF4FA7000F07F
:100C8000D1F902242502E7014FF4FA5817E039465A
:100C90002348FFF7F1FA29462248FFF7EDFA4B46C1
:100CA000524621A11E48009601F03EFF1C48FFF766
:100CB00041FF424623A11B4800F067F910B9641EAA
:100CC000E4B2E4D27CB1012429461648FFF7D4FAF5
:100CD0001EA0FFF72FFFC82220A1124800F055F9EF
:100CE00020B1012407E00020BDE8F88F2046641EF3
:100CF000E4B2E9D2F8E729460A48FFF7BDFA18A09E
:100D0000FFF718FFC8221AA1064800F03EF908B103
:100D10000120E9E72046641EE4B2ECD2E4E70000DB
:100D2000420200204203002041542B4349505354B7
:100D30004152543D222573222C222573222C2564F6
:100D40000D0A0000434F4E4E4543540041542B437F
:100D500049504D4F44453D310D0A00004F4B0000B6
:100D600041542B43495053454E440D0A00000000A6
:100D70003E00000010B507A0FFF7DCFE322000F0B7
:100D800051F904A0FFF7D6FEBDE81040322000F074
:100D900049B900002B2B2B0070B54FF4807115481A
:100DA000FFF76AFA4FF4007529461348FFF764FA13
:100DB000FFF7E0FF4FF4FA74204600F033F90FA07C
:100DC000FFF7B8FE4FF4487000F02CF9FFF7D0FEA3
:100DD00000280ED029460848FFF74EFA0AA0FFF770
:100DE000A9FE22460AA1044800F0CFF8002800D04E
:100DF000012070BD420200204203002041542B52CA
:100E000053540D0A00000000415445300D0A000003
:100E10004F4B0000012000F021B94FF4005000F0CA
:100E20001DB9000004460122D1020F4800F011FA5A
:100E3000052C16D2DFE804F003050F1113000BA0F8
:100E400000E014A001F060FE1CA001F05DFEC820CF
:100E500000F0E8F8ECE720A0F4E72BA0F2E736A0DA
:100E6000F0E742A0EEE70000001C0240A1BE6D6169
:100E7000696EA1BF6572726F723A4553503832364F
:100E800036B3F5CABCBBAFCAA7B0DCA3A10D0A0D2F
:100E90000A000000A1BE6D61696EA1BF6572726F2C
:100EA000723A45535038323636C1ACBDD3C8C8B596
:100EB000E3CAA7B0DCA3A10D0A0D0A00A1BE6D61B3
:100EC000696EA1BF696E666F3AC7EBD6D8C6F4BF2C
:100ED000AAB7A2B0E50D0A00A1BE6D61696EA1BFFF
:100EE0006572726F723A45535038323636C1ACBDB6
:100EF000D3B0A2C0EFD4C6B7FECEF1C6F7CAA7B032
:100F0000DCA3A10D0A0D0A00A1BE6D61696EA1BF2F
:100F10006572726F723A45535038323636B0A2C09D
:100F2000EFD4C64D515454B5C7C2BDCAA7B0DCA357
:100F3000A10D0A0D0A000000A1BE6D61696EA1BF7E
:100F40006572726F723A45535038323636B0A2C06D
:100F5000EFD4C64D515454B6A9D4C4D6F7CCE2CA86
:100F6000A7B0DCA3A10D0A0D0A000000A1BE6D61AF
:100F7000696EA1BF696E666F3A4E6F7468696E677D
:100F80000D0A0D0A00000000704770B506460A20E1
:100F9000B2FBF0F40D4602E00A2000F043F82946C7
:100FA0003046FFF774F910B9641EA4B2F4D20CB144
:100FB000012070BD002070BD2DE9F04788468146B4
:100FC0000024FFF776F906464046FFF772F905461A
:100FD000671EAE420DDB2B4622460849484601F00B
:100FE0008CFA06494046FFF76BF928B1641CB442FD
:100FF000F1DB3846BDE8F0872046FBE74C010020D6
:1010000090F83510022903D08021416501207047F6
:10101000052180F835100068016821F001010160A8
:101020000020704770B5044600F018F90546601CB2
:1010300002D004480078044400F010F9401BA0429C
:10104000FAD370BD04000020012804D0B0F5005F81
:1010500003D100F047BF00F02DBF7047044910B521
:101060000A68024202D00860FFF7EEFF10BD0000E0
:10107000143C01402DE9F84F00224FF001080325F0
:101080004FF00F0E0B6808FA02F42340A3426ED112
:101090004E68012E05D0022E03D0112E01D0122E43
:1010A00012D186684FEA420C05FA0CF7BE43CF68AE
:1010B00007FA0CF7374387604668A6430C79C4F3F8
:1010C0000014944034434460C668570005FA07FC96
:1010D0008C6826EA0C06BC403443C4604C68022C81
:1010E00001D0122C13D1D40800EB8404A346D4F809
:1010F000209054074FEAD46A0EFA0AF629EA060944
:101100000E6906FA0AF646EA0906CBF8206004687A
:101110000E7924EA0C0406F00306BE40264306605E
:101120004C68E4006FD53B4C266846F48046266048
:10113000246822F0030604F480440094364C3444BE
:10114000A446D4F808489607360F0EFA06F7BC43B3
:10115000324FB84201D100272EE0314FB84201D1C1
:10116000012729E02F4FB84202D1022724E04AE0AC
:101170002D4FB84201D103271EE02C4FB84201D1B8
:10118000042719E02A4FB84201D1052714E0294F5E
:10119000B84201D106270FE0274FB84201D10727F7
:1011A0000AE0264FB84201D1082705E0244FB84293
:1011B00001D1092700E00A27B7402743CCF8087877
:1011C000204E34684F689C43FF0300D51C433460B5
:1011D0001C4E361D34684F689C43BF0300D51C432A
:1011E0003460184E083634684F689C43FF0200D5BF
:1011F0001C433460134E0C3634684F689C43BF0266
:1012000000D51C433460521C102AFFF43BAFBDE8EC
:10121000F88F0000443802400030014000000240D6
:101220000004024000080240000C0240001002408E
:101230000014024000180240001C0240002002403E
:1012400000240240003C01400069084000D0012019
:1012500070470AB1816170470904FBE70148806863
:1012600070470000040000200248816802781144A1
:1012700081607047040000200B4810B5016841F4FC
:1012800000710160016841F480610160016841F40E
:1012900080710160032000F06FF8002000F006F874
:1012A00000F024F8002010BD003C024070B50D4D48
:1012B00004464FF47A712878B1FBF0F00A490968C6
:1012C000B1FBF0F000F03CFB48B9102C07D2002233
:1012D0002146501E00F030F800206C6070BD0120E7
:1012E00070BD000004000020100000200A4808B56E
:1012F000016841F480410160006800F48040009082
:101300000548001F016841F080510160006800F04D
:101310008050009008BD000044380240002809DBDE
:1013200000F01F02012191404009800000F1E020FF
:10133000C0F8001170470000F0B40E4B1B680C465B
:10134000C3F30223C3F10705042D00D90425191D99
:10135000072901D2002300E0DB1E012606FA05F171
:10136000491E214099409E40761E16403143F0BCF4
:1013700001F0EEBB0CED00E0064900F00702086842
:101380004FF6FF03184040EA0220034A104308606A
:10139000704700000CED00E00000FA052DE9F8436D
:1013A0001748016841F0805101600068154F00F056
:1013B0008050012600903E64FFF750FF05464FF431
:1013C0007A78114C05E000BFFFF748FF401B40450D
:1013D0000DD86068C003F7D57E64FFF73FFF054670
:1013E000464607E0FFF73AFF401BB04202D9032010
:1013F000BDE8F88360688003F4D50020F8E70000BA
:101400004038024000000E42007000402DE9F047D5
:101410000E46050065D0DFF81481D8F80000F7B259
:1014200000F00F00B04207D288F80070D8F8000032
:1014300000F00F00B04254D128683D4C810712D50E
:10144000400703D5206840F4E0502060287800076A
:1014500003D5206840F4604020602068A96820F02F
:10146000F000084320602878C0072DD03049686814
:101470000839012812D0022813D0032811D0096896
:10148000890700292DDA216821F003010143216039
:10149000FFF7E4FE814641F2883A0EE009688903CD
:1014A000EFE709688901ECE7FFF7D8FEA0EB090137
:1014B000514502D90320BDE8F0872068696800F033
:1014C0000C00B0EB810FEFD1D8F80010404601F0CE
:1014D0000F01B14207D90770006800F00F00B04259
:1014E00001D00120E7E72878400705D52068E968A2
:1014F00020F4E050084320602878000706D52068D3
:10150000296920F4604040EAC100206000F038F80A
:101510002168084AC1F30311515CC84006490860BC
:1015200006480068FFF7C2FE0020C4E7003C024006
:101530000838024020380008100000200800002071
:101540000448054900680968044AC1F38221515CD6
:10155000C8407047100000200838024030380008AA
:101560000448054900680968044AC1F34231515CE6
:10157000C84070471000002008380240303800088A
:10158000154810B5006810F00C02144813D0144927
:10159000042A0FD0082A0ED10F4C241F226823687A
:1015A00002F03F025B0207D52068C0F38810A0FB61
:1015B000010106E0084610BD2168C1F38811A1FBB6
:1015C00000010023FEF70EFE2168C1F30141491C12
:1015D0004900B0FBF1F010BD083802400024F400CF
:1015E00040787D012DE9F84F04006ED02078DFF8B7
:1015F0003C93C007A9F104054AD009F10400016831
:10160000C1F38101012908D00068C0F381000228DC
:101610000AD1D9F80000400206D52868800337D5E2
:1016200060680028E1D033E06068B0F5803F10D0FA
:10163000B0F5A02F286810D020F4803028602868EA
:1016400020F4802028606068A8B1FFF707FE0646F6
:101650000DE0286840F48030F4E740F480202860F2
:10166000F7E700BFFFF7FAFD801B642873D82868EE
:101670008003F7D50CE0FFF7F1FD064605E000BF5B
:10168000FFF7ECFD801B6428F0D828688003F7D4AE
:101690002078DFF89C8280074FF0000A3ED5A348EF
:1016A000001D016811F00C0F08D00068C0F3810024
:1016B00002280BD1D9F80000400207D4286880071F
:1016C00016D5E068012800D112E02BE1E068B8B13E
:1016D0000120C8F80000FFF7C1FD064605E000BF85
:1016E000FFF7BCFD801B0228C0D828688007F7D50B
:1016F0002868216920F0F80040EAC10028600DE068
:10170000C8F800A0FFF7AAFD064604E0FFF7A6FD13
:10171000801B02281FD828688007F7D4207800078C
:1017200022D5824E83486169703671B10121016012
:10173000FFF794FD074604E0FFF790FDC01B022869
:1017400009D830688007F7D50EE0C0F800A0FFF791
:1017500085FD074605E082E0FFF780FDC01B0228FB
:101760007DD830688007F7D42078400768D5DFF847
:10177000BCB100270BF13C0BDBF80000C0000BD420
:10178000DBF8001041F08051CBF80010DBF80000CE
:10179000012700F080500090674E3068C00510D4DB
:1017A000306840F480703060FFF758FD009005E02D
:1017B000FFF754FD0099401A022850D83068C00540
:1017C000F6D55A4EA0686C3601280FD0052830682F
:1017D00010D020F001003060306820F0040030604C
:1017E000A068B8B1FFF73AFD00900FE0306840F014
:1017F0000100F4E740F004003060F7E7FFF72EFD4A
:101800000099411A41F28830814266D830688007D9
:10181000F4D50EE0FFF722FD009007E0FFF71EFD74
:101820000099411A41F28830814256D830688007C9
:10183000F4D42FB1DBF8001021F08051CBF8001068
:10184000A069C8B33949091D0968C1F3810102299A
:101850004AD00228504607D0C8F8600000E03CE0BB
:10186000FFF7FCFC04463BE04746C8F86000FFF782
:10187000F5FC064605E000BFFFF7F0FC801B0228E0
:101880002BD828688001F7D4D4E907010843A16A5E
:101890002A4A490802EB0141626A41EA821108437F
:1018A00094F82C1040EA0161C9F800100120386654
:1018B000FFF7D4FC044606E036E000BFFFF7CEFC9D
:1018C000001B022809D828688001F7D52CE000BF4A
:1018D000FFF7C4FC001B022802D90320BDE8F88FE3
:1018E00028688001F4D41FE00128F7D0D9F800005F
:1018F000E26900F48001914214D1226A00F03F01B4
:1019000091420FD147F6C071626A0140914209D1FC
:10191000A26A00F44031914204D1E16A00F07060A3
:10192000884201D00120D9E70020D7E704380240DF
:1019300000004742800E4742007000400000FFFF59
:1019400010B5401EB0F1807F01D3012010BD4FF0D3
:10195000E02460610F21601701F0FAF80020A06117
:1019600007202061002010BD70B590F83C20012AAE
:1019700032D0012480F83C40022280F83D200368E8
:101980005A689D6822F070060A6832435A60134B09
:1019900002689A4214D0B2F1804F11D0104B9A4293
:1019A0000ED0104B9A420BD00F4B9A4208D00F4BDF
:1019B0009A4205D00E4B9A4202D00E4B9A4204D165
:1019C000496825F080031943916080F83D4000216B
:1019D00080F83C10084670BD022070BD0000014038
:1019E0000004004000080040000C004000040140DA
:1019F000004001400018004010B5040003D094F8E6
:101A00003D0010B107E0012010BD002084F83C002B
:101A1000204600F00DF8022084F83D00211D2068CA
:101A200000F078FE012084F83D00002010BD000089
:101A300008B500680649884208D10648016841F0A7
:101A400001010160006800F00100009008BD000085
:101A5000000001404438024070B5044690F83C0054
:101A6000012817D0012584F83C50022084F83D005D
:101A70002068826822F0770222F47F428260086840
:101A8000502830D00DDC20284DD005DC98B310282C
:101A90003BD148E0022070BD302844D0402834D1EA
:101AA00039E0602828D0702806D0B0F5805F2CD0AF
:101AB000B0F5005F29D10AE0CB68D1E901212068A7
:101AC00000F08CFE2068816841F0770109E0CB6866
:101AD000D1E90121206800F081FE2068816841F48D
:101AE0008041816011E0CA684968206800F088FE82
:101AF0005021206807E016E0CA684968206800F0B5
:101B000090FE6021206800F073FE84F83D500020B4
:101B100084F83C0070BDCA684968206800F070FE17
:101B200040212068EFE7226801461046EBE7704746
:101B300070B5026804461068D168536910F00F0F41
:101B400052D003F0010501F490762E435FD0C20716
:101B500005D0CA0503D5E26B42F00102E2634207F9
:101B600005D5DA0703D0E26B42F00202E263820796
:101B700005D5DA0703D0E26B42F00402E263020704
:101B800007D501F020022A4303D0E26B42F008029D
:101B9000E263E26B002A33D0800604D5880602D5C2
:101BA000204600F066FE20684069E16BC0F38010BB
:101BB000090700D428B3204600F04DFE2068416993
:101BC00049061AD5416921F040014161606BA0B11D
:101BD0001B490165606BFFF713FA002810D0606B9A
:101BE000016DBDE870400847830610D58B060ED501
:101BF0002046BDE8704000F03CBE2046FFF797FF4E
:101C000070BD2046FFF793FF0020E06370BD030620
:101C100006D50B0604D52046BDE8704000F008BF8D
:101C20004006F3D54806F1D5D168204621F04001A1
:101C3000D160202184F8391000F039F970BD00001E
:101C40004728000870B5040004D094F83900002536
:101C500010B106E0012070BD84F83850204600F035
:101C600023F8242084F839002068C16821F4005149
:101C7000C160204600F048FE2068016921F49041CF
:101C800001612068416921F02A0141612068C16831
:101C900041F40051C160E563202084F8390084F8E4
:101CA0003A00002070BD000070B586B004461421D3
:101CB0006846FEF7E1FA274E2268002126480223F3
:101CC00003240725B24225D1234A1432166846F070
:101CD00010061660126802F010020592026842F0C7
:101CE00001020260006802AA00F00100059082E88B
:101CF00032006002CDE9000369461848FFF7BAF9DF
:101D0000002203212520FFF717FB2520FFF706FB04
:101D100006B070BD124EB242FAD10F4A10321668A8
:101D200046F400361660126802F40032059202682A
:101D300042F008020260006802AA00F00800059064
:101D400082E832006020CDE9000369460548FFF7CC
:101D500091F9DDE7001001403038024000000240F8
:101D600000440040000C024090F83A30202B22D171
:101D7000F9B1F2B190F83830012B1CD08162828524
:101D8000C2850021C163222280F83A2080F83810F1
:101D90000168CA6842F48072CA6001684A6942F008
:101DA00001024A610068C16841F02001C160002061
:101DB0007047012070470220704700000068084902
:101DC00088420CD107480949074B027808781A5411
:101DD000401C0870012203490548FFF7C5BF704742
:101DE00000100140140000204203002015000020D4
:101DF000AC0100202DE9F843044690F839001F4655
:101E000016460D46202850D1B5B1AEB194F8380031
:101E100001284AD0012084F838004FF00008C4F8A7
:101E20003C80212084F83900FFF718FAA684814607
:101E3000E68484F8388026E00120BDE8F883E08C51
:101E4000401EE084A0684B46B0F5805F4FF0000272
:101E50004FF080012046009703D000F01AFEE8B949
:101E60000DE000F016FEC8B928882168C0F308000C
:101E70004860206908B16D1C05E0AD1C03E02168D5
:101E800015F8010B4860E08C0028D8D14B460022A1
:101E900040212046009700F0FCFD08B10320CCE76C
:101EA000202084F839000020C7E70220C5E77047EA
:101EB000FEE7000010B503A000F026FEBDE81040CC
:101EC000FEF78ABCA1BE6D61696EA1BF64656275D3
:101ED000673ACED2B0B4CFC2C1CB4B45595F310DBA
:101EE0000A0D0A0001A000F00FBE0000A1BE6D6146
:101EF000696EA1BF64656275673ACED2B0B4CFC2D5
:101F0000C1CB4B45595F320D0A0D0A002DE9F74F41
:101F100092468346FEF7CDF907460198FEF7C9F9C8
:101F200006465046FEF7C5F9764C0022054662800B
:101F3000B819618828444FF0100C734B03EB01086B
:101F4000491C618088F800C01030C11700EB516156
:101F500021F07F0CA0EB0C0000F0FF0CC811002852
:101F600002DD00BF4CF0800C618803EB010801F139
:101F70000101618088F800C0E7DC61889946184655
:101F80000B4401F1010161801A7061884FF004086F
:101F900000EB010301F10101618083F80080618899
:101FA0004FF04D0300EB010C01F1010161808CF851
:101FB000003061884FF0510300EB010C01F1010189
:101FC00061808CF8003061884FF0540300EB010C05
:101FD00001F1010161808CF80030618800EB010C97
:101FE00001F1010161808CF80030618800EB010390
:101FF00001F10101618083F8008061884FF0C20324
:1020000000EB010C01F1010161808CF80030618866
:1020100000EB010301F1010161801A7061884FF04A
:102020003C0200EB010301F1010161801A7061883B
:102030004FEA172200EB010301F1010161801A70E0
:10204000618800EB010201F1010161801770618874
:102050003A4609EB01005946FEF7F5F86088384426
:102060006080002E15DD6088320A09EB0003401CF9
:1020700060801A70608809EB0002401C6080167056
:102080006088324648440199FEF7DDF860883044A4
:102090006080002D15DD60882A0A09EB0003401CD2
:1020A00060801A70608809EB0002401C6080157027
:1020B00060882A4648445146FEF7C5F8608828449F
:1020C0006080124F01264FF4007841460F48FEF71A
:1020D000D3F861880C4800F08FF81D253878202847
:1020E00002D1787802280BD06420FEF79BFF6D1E8A
:1020F000EDB2F3D23046761EF6B2E6D2BDE8FE8FE0
:102100000120FBE7160000204202002042030020CD
:102110002DE9F04790468A468146FEF7CAF8064602
:102120005046FEF7C6F8324C074600206080B8F1F2
:10213000000F06EB070001D0001D00E0801C618845
:1021400030222C4D6B18491C61801A70C11700EBAE
:10215000516121F07F02801AC2B2C811002801DD4E
:1021600042F08002618805EB010301F10101618009
:102170001A70EBDC60884FEA162105EB000200F1D3
:10218000010060801170608805EB000100F1010022
:1021900060800E706088324628444946FEF753F846
:1021A000608830446080B8F1000F0FD0104960881B
:1021B0004A782B18401C60801A70097860882A18A9
:1021C000401C608011702088401C208060883A4646
:1021D00028445146FEF737F86088384460806188AB
:1021E000044800F009F86088C0B2BDE8F08700003C
:1021F0001600002042020020FEF782BC2DE9F047C5
:10220000474C4FF00008174689468246A4F80280E2
:10221000FEF74FF8434D0646002F02D04FF0010065
:1022200001E04FF00000304400F1040002D04FF014
:10223000820201E04FF0A202618805EB010301F187
:102240000101618083F800204FEAE07100EB5161E9
:1022500021F07F02A0EB0200C2B24FEAE110002899
:1022600002DD00BF42F08002618805EB010301F14D
:10227000010161801A70E7DC608805EB000100F164
:102280000100608081F8008060884FF0010105EB5B
:10229000000200F101006080117060884FEA162191
:1022A00005EB000200F1010060801170608805EB11
:1022B000000100F1010060800E7060883246284401
:1022C0005146FDF7C0FF6088304460802FB16088C0
:1022D0002A18401C608082F80090134F01254FF4AB
:1022E000007841461048FDF7C7FF61880D48FFF7A9
:1022F00083FF1D263878902802D17878032809D0EA
:102300006420FEF78FFE761EF6B2F3D26D1EEDB29C
:10231000E7D215B10120BDE8F0870020FBE70000FF
:102320001600002042020020420300202DE9F04365
:1023300087B014216846FDF79FFF3348016841F0DC
:1023400004010160016801F004010591016841F098
:1023500080010160016801F080010591016841F090
:1023600001010160016801F001010591016841F07E
:10237000080101600068DFF8948000F00800059013
:10238000002208214046FEF764FFDFF884904FF4F6
:10239000E057012239464846FEF75BFF1D4E4FF4D9
:1023A0000050CDE900060225694602951A48FEF75D
:1023B00061FE0124CDE90046694640460295FEF7DC
:1023C00059FE08208DE83100694640460395FEF726
:1023D00051FECDE900740294694648460394FEF725
:1023E00049FE002205210620FEF7A6FF0620FEF783
:1023F00095FF002205212820FEF79EFF2820FEF7EA
:102400008DFF07B0BDE8F083303802400000024085
:10241000001C0240000011100008024010B586B0F8
:1024200000241748009401940294039404941349DF
:10243000059401601121C0E901144FF6FF71C0E954
:10244000031444618461FFF7D7FA08B1FEF79CFDDD
:102450004FF48050009069460948FFF7FDFA08B133
:10246000FEF792FD049404A905480594FFF77CFA51
:10247000002801D0FEF788FD06B010BD0000014025
:102480006C0100200C4810B50A4901604FF4E1319D
:102490004160002181600C22C160C0E904128161A9
:1024A000C161FFF7CFFB002803D0BDE81040FEF765
:1024B0006BBD10BD00100140AC0100200C4810B5F0
:1024C0000A4901604FF4E1314160002181600C2232
:1024D000C160C0E904128161C161FFF7B3FB00284C
:1024E00003D0BDE81040FEF74FBD10BD00440040D2
:1024F000EC010020FEE77047704730B5002403E090
:102500001519455D0D55641C9C42F9DB00200855EA
:1025100030BD00002DE9F04188B0002406A905A8CF
:1025200001F064F800283BD0641CE4B20A2CF5D317
:10253000224C4FF480612046FEF786FE002837D0FB
:10254000002080464FF400612046FEF77DFE002803
:1025500030D000274FF480512046FEF775FE00284A
:102560002AD000269DF81800FDF7B8FE04460D4657
:102570009DF81400FDF7B2FE8DE8300141EC100B20
:10258000CDE9037653EC102B0D490E4800F0CCFA40
:1025900000220C490CA0FFF7BBFD08B0BDE8F0819C
:1025A0009DF818209DF8141014A000F0ADFABFE7B4
:1025B0000120C6E70127CDE70126D3E7001C024032
:1025C00038380008200000202F7379732F61316C98
:1025D000416F617A644831772F425A4C30312F7401
:1025E00068696E672F6576656E742F70726F70659F
:1025F0007274792F706F737400000000A1BE6D615A
:10260000696EA1BF696E666F3A74656D70657261BF
:10261000747572653D25642C68756D69646974799B
:102620003D2564200A0D0A007047FEF71DBE00001C
:1026300070B592B030216846FDF71EFE14210CA83B
:10264000FDF71AFE1A480025016841F0805101602B
:10265000006800F0805011901648016841F4404134
:1026600001600068022400F44040119001200090B5
:10267000000401908001CDE906400F260896D8207D
:10268000CDE9090404200B906846FEF7ABFFFEF786
:1026900085FE4FF4A050CDE90E50E002CDE90C6468
:1026A000109005210CA8FEF7B1FE12B070BD00001D
:1026B00040380240007000400548016841F4700154
:1026C000016003494FF000608039086070470000E6
:1026D00088ED00E00E4900220B685A620A68136810
:1026E00043F00103136000EB80020868416AB1EB1C
:1026F000420FFBD3016A41F21112114207D1016A64
:102700009210114203D1016821F00101016070476C
:102710006C010020F0B50268254C264D264E274F4F
:10272000274B4FF0804CA04209D0604507D0A8420B
:1027300005D0B04203D0B84201D0984204D122F073
:10274000700E4A6842EA0E02A0421BD0604519D0C2
:10275000A84217D0B04215D0B84213D0984211D039
:10276000184DA8420ED0184DA8420BD0174DA842C4
:1027700008D0174DA84205D0164DA84202D0164DDC
:10278000A84203D122F44075CA682A434D6922F059
:1027900080022A4302608A68C2620A688262A0429A
:1027A00001D0984201D10969016301214161F0BD65
:1027B000000001400004004000080040000C004000
:1027C0000004014000400140004401400048014035
:1027D00000180040001C00400020004010B5846834
:1027E00042EA032224F47F440A432243826010BD5C
:1027F000826822F070020A4342F00701816070474C
:1028000010B5036A046A24F001040462846924F0A8
:10281000F00444EA021423F00A020A4384610262CB
:1028200010BD10B5036A23F0100303628369046AC4
:1028300023F4704343EA023224F0A00343EA011177
:102840008261016210BD10B5806B0021C185C18419
:10285000FFF76DF910BD0168CA6822F49072CA6072
:1028600001684A6922F001024A61202180F83A1089
:10287000704710B590F83A10222901D0022010BDFF
:102880008168B1F5805F11D00169002901681FD00E
:10289000496801F07F03816A4A1C82620B70C18D16
:1028A000491E0904090CC18518D02BE00269816A10
:1028B000002A0268526805D0D2B20A80816A491C97
:1028C0008162ECE7C2F308020A80816A891CF7E79B
:1028D0004A68816A4B1C83620A70E0E70168CA6833
:1028E00022F02002CA600168CA6822F48072CA60BD
:1028F00001684A6922F001024A61202180F83A10F9
:10290000FFF75CFA002010BD2DE9F0410446006895
:102910000169E26821F44051114301612169A06815
:10292000E26908436169114308432168CA6849F2B2
:102930000C639A430243CA6020684169A26921F48A
:10294000407111434161E069192764253226B0F5D1
:10295000004F354A354920684FF0000806D08842BC
:1029600001D0904236D1FEF7FBFD35E0884201D020
:10297000904202D1FEF7F4FD01E0FEF7E1FD61684F
:102980004A18A0FB070148EB0803FDF72BFC0146A2
:10299000B0FBF5F00201B1FBF5F06FF018035843FE
:1029A00001EB800006EBC000B0FBF5F000F0F80092
:1029B00002EB4002B1FBF5F0584301EB800006EB5F
:1029C000C000B0FBF5F000F00700216810448860FB
:1029D000BDE8F081FEF7B4FD61688B0F8A00A0FBB3
:1029E0000701FDF7FFFB0146B0FBF5F06FF01802A1
:1029F000504301EB800006EB0010B0FBF5F000F057
:102A0000F002B1FBF5F002EB0012B1FBF5F06FF054
:102A10001803584301EB800006EB0010B0FBF5F003
:102A200000F00F00D1E70000001401400010014049
:102A300090F83910212901D0022070478168B1F542
:102A4000805F016A0BD04A1C0262026809785160FB
:102A5000C18C491E0904090CC1840ED017E00988F5
:102A60000268C1F30801516001690029016A02D0BE
:102A7000491C0162ECE7891CFBE70168CA6822F087
:102A80008002CA600068C16841F04001C160002056
:102A900070472DE9F041984617460E460446069DBC
:102AA0001DE0681C1BD02DB1FEF7D8FBA0EB080081
:102AB000A84214D92068C16821F4D071C16020688F
:102AC000416921F001014161202084F8390084F836
:102AD0003A00002084F838000320BDE8F081206827
:102AE000006836EA000004D00020B842D9D00020A7
:102AF000F3E70120F9E700000148FFF719B80000EB
:102B0000AC010020FEE700000FB4054B10B503A98F
:102B1000044A029800F0FEF810BC5DF814FB0000B7
:102B2000753700081C0000200FB4084B10B504A92D
:102B300002AA039800F0EEF8044602A9002000F073
:102B400080FC204610BC5DF814FB000043340008F4
:102B50000907090E002804DB00F1E02080F80014CA
:102B6000704700F00F0000F1E02080F8141D70475E
:102B700002E008C8121F08C1002AFAD17047704746
:102B8000002001E001C1121F002AFBD170470000A4
:102B90002DE9FF5F82B00021DDE90430020DDDF890
:102BA00040B0034318D044F61050A2F2FF32424323
:102BB0001514119801281FD0A5EB0B00401C5FEAEB
:102BC000000A4FF000064E4FDFF83891B0465046ED
:102BD00015D5CAF1000413E0119801244AA3012875
:102BE00001D16FEA0B010298119AC0E90031C0E9E6
:102BF000024206B0BDE8F09FCBF10000DFE70446DB
:102C00000021404A491842EB0450CDE9001012E07F
:102C1000E00707D032463B4640464946FDF7A4FC54
:102C20008046894632463B4610461946FDF79CFCD5
:102C300006460F466410002CEAD1DDE90401DDE907
:102C40000023BAF1000F06DAFDF78EFC42464B4630
:102C5000FDF78AFC05E0FDF7F9FC42464B46FDF71F
:102C6000F5FC04460E460022284BFDF777FD03D8FD
:102C70004FF0FF30014607E00022254B2046314649
:102C8000FDF7CBFBFDF751FD102409E0002C0ADB1A
:102C90000A220023FDF7A6FA039B30321A55641E60
:102CA00050EA0102F2D1641C039AC4F111031444E6
:102CB000119A012A03D0012208430DD10AE00843EA
:102CC00004D000204FF0110B119072E7A3EB0B051D
:102CD0006D1E0DE05B4504DD4FF0000205F10105BE
:102CE00004E003DA4FF00002A5F10105002AECD060
:102CF00002981199C0E90231C0E9004579E7000066
:102D0000000014400000F03F300000000000F043DD
:102D10000000E03F2DE9FF4F95B09B4689460646EF
:102D200000250FE2252877D100242746F84A012103
:102D3000059400E0044316F8013F203B01FA03F03C
:102D40001042F7D130782A2811D06FF02F03307855
:102D5000A0F13002092A16D8059A44F0020402EBC9
:102D6000820203EB42021044761C0590EFE759F80B
:102D7000042B0592002A03DA504244F400540590D3
:102D800044F00204761C30782E2816D116F8010F74
:102D900044F004042A280DD06FF02F023078A0F1FF
:102DA0003003092B09D807EB870302EB4303C7184D
:102DB000761CF3E759F8047B761C30786C280FD02A
:102DC00006DC4C2817D068280DD06A2814D104E0FE
:102DD000742810D07A280FD10DE044F400140AE0D2
:102DE00044F4801401E044F440147278824202D129
:102DF00004F58014761C761C307866280BD013DC22
:102E0000582877D009DC002875D04528F6D0462808
:102E1000F4D047281AD19DE118E0632835D0642802
:102E200079D0652812D195E1702873D008DC672825
:102E3000F1D069286FD06E280DD06F2806D1B5E08B
:102E400073282CD0752875D0782874D05A461799D5
:102E500090476D1C75E1C4F30250022809D0032885
:102E60000DD0D9F8001004280DD00D6009F1040927
:102E700067E1D9F80010EA17C1E90052F6E7D9F87E
:102E800000100D80F2E70D70F0E719F8041B8DF8C3
:102E9000001000208DF80100EA46012003E059F8F7
:102EA00004AB4FF0FF3061074FF0000102D40DE09A
:102EB00008F101018846B9420FDA8045F8DB1AF8BB
:102EC00008100029F4D108E008F101018846814288
:102ED000FADB1AF808100029F6D105985B46A0EB3A
:102EE000080721463846179A00F094FA284400EB68
:102EF000080507E04DE029E10DE01AF8010B5A46FC
:102F000017999047B8F10108F7D25B462146384639
:102F1000179A13E142E00A220092C4F302524FF0E2
:102F2000000A022A08D059F804CB032A4FEAEC71B0
:102F30000AD00DE029E02AE009F1070121F007029B
:102F4000F2E802C1914609E00FFA8CFC4FEAEC71FD
:102F5000042A03D14FFA8CFC4FEAEC71002907DAFE
:102F60000A460021DCF1000C61EB02012D2202E097
:102F7000220504D52B228DF80420012203E0E2076C
:102F800001D02022F7E7904659E00A2102E0102202
:102F90000DE010214FF0000A00910BE010224FF0DD
:102FA000000A44F004040827009203E008224FF0CE
:102FB000000A0092C4F30252022A05D059F804CB49
:102FC0000021032A08D009E009F1070121F00702D6
:102FD000F2E802C1914605E01FFA8CFC042A01D1F7
:102FE0000CF0FF0C4FF00008220728D5702806D0FF
:102FF000009B83F0100353EA0A0305D00EE0402241
:103000008DF80420012208E05CEA010206D030229B
:103010008DF804208DF8050002229046009B83F075
:10302000080353EA0A030AD15CEA010201D16207EC
:1030300005D530228DF804204FF001087F1E582856
:1030400004D034A003900EA802900DE036A0F9E75A
:1030500053466046009AFDF7C5F884460398825CA3
:103060000298401E029002705CEA0100F0D10298C2
:1030700006A9081A00F1200A600702D524F480345A
:1030800000E00127574502DDA7EB0A0000E0002021
:1030900000EB0A01009005984144401A0590E003B6
:1030A00006D45B462146179A059800F0B3F905440B
:1030B000002706E001A85A46C05D179990476D1C8D
:1030C0007F1C4745F6DBE0030CD55B462146179A8B
:1030D000059800F09FF9054404E030205A461799FE
:1030E00090476D1C0099481E00900029F5DC08E00F
:1030F000029802995A460078491C02911799904704
:103100006D1CBAF10001AAF1010AF1DC65E10000D1
:1031100009280100303132333435363738396162AD
:103120006364656600000000303132333435363771
:1031300038394142434445460000000000F058F948
:103140000544761C307800287FF4ECAD19B0284691
:10315000BDE8F08F620700D4062709F1070222F0CC
:10316000070CFCE80223E14603F000485FEA080C84
:1031700002D00FF2702C0DE05FEA045C02D50FF272
:10318000682C07E05FEAC47C02D00FF2602C01E0FB
:10319000AFF2700C4FF0FF3823F00043CDF850C071
:1031A00065280CD006DC452809D046281DD04728C4
:1031B0003DD13DE0662818D067287ED138E0002157
:1031C000112F01DB112000E0781CCDE9000106A9D8
:1031D0000EA8FFF7DDFCDDE90F010E9A0391002137
:1031E000009207F1010A04914DE04FF00040009772
:1031F000CDE9011006A90EA8FFF7CAFCDDE90F0210
:1032000003920E9B11990022DDF80CA0009304920A
:1032100011B9791C00EB010AB7EB0A0004D4C0F124
:10322000FF3007F1010A0490AAEB0700019044E087
:10323000012F00DA01270021112F01DD112000E00C
:103240003846CDE9000106A90EA8FFF7A1FCDDE98B
:103250000F010E9A0391002104910092BA462107B2
:103260000CD40399514500DA8A46BAF1010F05DD05
:10327000009AAAF10101515C302908D0B84202DA63
:1032800010F1040F06DA0121CDE9011015E0AAF1D1
:103290000101E9E7002805DC049901440491AAEB47
:1032A000000102E0411C514500DD8A460499401AA4
:1032B000401C01904FF000400290200704D4019878
:1032C000504501DBCDF8048000208DF84F000298B6
:1032D0000DF14F07B0F1004F25D02B200E90029832
:1032E0004FF0020800280CDA404202902D200E9088
:1032F00007E00A210298FCF7FEFF3031029007F840
:10330000011DB8F10001A8F10108F2DC02980028C3
:10331000EFD1791E0E980870307800F0200040F050
:10332000450007F8020D12A8C01B00F10708149809
:10333000007800B1012000EB0A01019801EBE07177
:1033400005984144401A401E0590E00306D45B46B0
:103350002146179A059800F05DF805441498007806
:1033600018B15A46179990476D1CE00324D55B4667
:103370002146179A059800F04DF805441CE0049882
:10338000002807DBDDE90301884203DD0098405C8B
:10339000179901E0179930205A469047049805F193
:1033A0000105401C04900198401E019004D12E207C
:1033B0005A46179990476D1CBAF10001AAF1010A0B
:1033C000DDDC05E017F8010B5A46179990476D1C94
:1033D000B8F10001A8F10108F4DC5B462146179A18
:1033E0000598ABE62D0000002B0000002000000037
:1033F0002DE9F041044600251E461746880404D4F2
:1034000005E039462020B0476D1C641EF9D52846DA
:10341000BDE8F0812DE9F041044600251E469046A6
:10342000C80301D5302700E02027880404D505E033
:1034300041463846B0476D1C641EF9D52846BDE8A4
:10344000F0810A68531C0B60107070472DE9F0433F
:10345000ADF5017D07460E4600256C4608E0785D17
:1034600060556119642301223E48FEF7C3FC6D1CC0
:10347000B542F4DB4FF400713B48FCF7FDFE3B49DD
:10348000002008703AA16846FDF796FD3A4D4FF4CA
:1034900080674FF400684FF4805900281ADD2044FB
:1034A0000122807939463038C6B22846FDF7D1FE70
:1034B000012241462846FDF7CCFE01224946284616
:1034C000FDF7C7FE0EB1002200E001223946284672
:1034D000FDF7BFFE29A16846FDF76EFD00281ADD45
:1034E00020440122807939463038C6B22846FDF79B
:1034F000B0FE012241462846FDF7ABFE01224946B7
:103500002846FDF7A6FE0EB1002200E0012241464A
:103510002846FDF79EFE1BA16846FDF74DFD0028DD
:103520001BDD20440122807939463038C4B2284658
:10353000FDF78FFE012241462846FDF78AFE012253
:103540004E4649462846FDF784FE0CB1002200E0B5
:10355000012231462846FDF77CFE0DF5017DBDE8D0
:10356000F0830000EC010020420300201500002041
:103570004C45445200000000001C02404C454447AA
:10358000000000004C4544420000000080B2FFF7FC
:10359000A1B8000070B50024FDF76CF9124D04E0ED
:1035A000641CE4B20120FFF7F1FF08212846FDF773
:1035B0004BFE10B1642CF3D30FE0642C0DD2002429
:1035C00004E0641CE4B20120FFF7E0FF0821284674
:1035D000FDF73AFE18B1642C04D3012070BD642CB1
:1035E000EFD3FAE7002070BD000002402DE9FC5F38
:1035F000002489468246A0462546264600F0A2F8C9
:10360000FFF7C8FF10B10120BDE8FC9F0027EB4683
:1036100000F062F80BF807007F1CFFB2052FF7D30C
:103620009DF800109DF801009DF803300A189DF8E0
:10363000020003441A449DF804309A4201D10C461A
:103640008046244801780A2910D200EB410181F814
:103650000280017800EB4101CC700178491CC9B2AD
:1036600001700A2907D30A2141701AE080F802800C
:10367000C47001210170417811B10A2911D027E0ED
:10368000002102780AE000BF00EB4103491C9C784E
:10369000DB782C443344A5B29EB2C9B28A42F3D837
:1036A0000EE090F80120002100EB4103491C9C78BA
:1036B000DB782C443344C9B2A5B29EB28A42F3D817
:1036C000B5FBF2F0B6FBF2F18AF8000089F80010C1
:1036D000002099E72C0200202DE9F0410020184E2F
:1036E00005464006070E002404E0641CE4B20120F5
:1036F000FFF74CFF08213046FDF7A6FD08B1642C0A
:10370000F3D3002404E0641CE4B20120FFF73EFF81
:1037100008213046FDF798FD08B9642CF3D31E202C
:10372000FFF734FF08213046FDF78EFD00B1012080
:103730006D1C3843EDB2082DD3D3BDE8F0810000F5
:103740000000024010B5FDF7A7F8094C002208213F
:103750002046FDF77EFD1420FDF764FC01220821C0
:103760002046FDF776FDBDE810401E20FFF70EBF96
:103770000000024008B502238DF8000001226946CE
:103780000248FEF737FB002008BD0000EC010020D6
:10379000FDF772FDFEF74CFFFEF7C8FDFEF772FE67
:1037A000FEF78CFEFEF73AFE012211491148FEF7A2
:1037B000DBFAFDF783F800250F4E2C4628466D1CDA
:1037C000ADB2A62803D900250CA0FFF79DF920462D
:1037D000641CA4B2642802D90024FEF79BFE317851
:1037E00011B10E48FFF732FE1E20FDF71BFCE5E786
:1037F00014000020AC01002015000020A1BE6D6166
:10380000696EA1BF696E666F3AB3CCD0F2D5FDD4B4
:10381000DAD4CBD0D0A3A10D0A0D0A0042030020B8
:103820000000000000000000010203040607080970
:1038300000000000010203047B226D6574686F6460
:10384000223A227468696E672E73657276696365C1
:103850002E70726F70657274792E736574222C22CB
:103860006964223A22313831343534353737222CE5
:1038700022706172616D73223A7B090922444854B7
:1038800031315F54656D7065726174757265223A8D
:10389000252E31662C09092244485431315F487580
:1038A0006D6964697479223A252E31662C090922E2
:1038B0005377697463685F4C454452223A25642CFF
:1038C0000909225377697463685F4C454447223A7B
:1038D00025642C0909225377697463685F4C454459
:1038E00042223A2564097D2C2276657273696F6ED7
:1038F000223A22312E302E30227D00001C39000861
:103900000000002020000000702B00083C39000857
:103910002000002028090000802B00080000000083
:103920000100000010000000000000000024F4006E
:0C3930000000000000000000000000008B
:04000005080001AD41
:00000001FF
